:100000000C9483000C94AB000C94AB000C94AB00EC
:100010000C94AB000C94AB000C94AB000C94721FCE
:100020000C94AB000C94AB000C94AB000C94AB00A4
:100030000C94AB000C94AB000C94AB000C94AB0094
:100040000C94B11D0C94AB000C94211E0C94FB1D60
:100050000C94AB000C94AB000C94AB000C94AB0074
:100060000C94531E0C94AB007C3C3E5E2B3D3F2F0A
:100070005B5D3B2C2A225C001F1C1F1E1F1E1F1FC6
:100080001E1F1E446174652C54696D652C542C48E8
:100090002C4C2C410030383A34383A3233004D6120
:1000A0007920323620323032350000000000240042
:1000B00027002A0000000000250028002B00000077
:1000C0000008000201000003040700000000000017
:1000D000000000000000230026002900040404049E
:1000E00004040404020202020202030303030303E2
:1000F00001020408102040800102040810200102BF
:1001000004081020AF1F11241FBECFEFD8E0DEBFC0
:10011000CDBF12E0A0E0B1E0E4E3F1E602C005905B
:100120000D92A239B107D9F726E0A2E9B2E001C0E9
:100130001D92AB3CB207E1F710E0C3E8D0E004C089
:100140002197FE010E944A2FC238D107C9F70E94A9
:1001500044200C9498300C940000CF93DF93FC0162
:10016000828193819093900680938F0684819581FC
:10017000A681B7818093910690939206A0939306EF
:10018000B093940680859185A285B385809395066A
:1001900090939606A0939706B0939806DF011C965D
:1001A000CF014996C9E9D6E02D912993A817B9073F
:1001B000D9F7818D928D9093A7068093A6068DE83E
:1001C00096E0DF91CF91089508950895CF92DF9240
:1001D000EF92FF92CF93DF93B091BB06A0E0811125
:1001E000AB2F8091BC0690E0880F991FAC014E5256
:1001F0005F4FC090C106D090C206E090C306F09059
:10020000C40630E020E0FA01C591D491E881B9013B
:1002100090E080E0EB23EA130AC02F5F3F4F6C159C
:100220007D058E059F0578F36FEF7FEFCB01DF91A2
:10023000CF91FF90EF90DF90CF900895833081F0C1
:1002400028F4813099F08230A9F008958730A9F020
:100250008830C9F08430B1F4809180008F7D03C074
:10026000809180008F7780938000089584B58F7788
:1002700084BD089584B58F7DFBCF8091B0008F77CA
:100280008093B00008958091B0008F7DF9CFCF9317
:10029000DF93282F30E0F901E254FF4F8491F901F8
:1002A000E051FF4FD491F901E452FF4FC491CC23A8
:1002B000A1F081110E941E01EC2FF0E0EE0FFF1F54
:1002C000EE52FF4FA591B491EC91ED2381E090E0C7
:1002D00009F480E0DF91CF91089580E090E0FACFBB
:1002E0001F93CF93DF93282F30E0F901E254FF4FA3
:1002F0008491F901E051FF4FD491F901E452FF4F8D
:10030000C491CC23A9F0162F81110E941E01EC2F5D
:10031000F0E0EE0FFF1FEC54FF4FA591B4918FB7A3
:10032000F894EC91111108C0D095DE23DC938FBFB7
:10033000DF91CF911F910895DE2BF8CFCF93DF93FC
:1003400090E0FC01E051FF4F249184529F4FFC014B
:1003500084918823D1F090E0880F991FFC01E65525
:10036000FF4FA591B491FC01EC54FF4FC591D4917E
:10037000623071F49FB7F8943C91822F809583236B
:100380008C93E8812E2B28839FBFDF91CF91089516
:100390008FB7F894EC912E2B2C938FBFF6CF8E5005
:1003A000806480937C0080917A00806480937A00DE
:1003B00080917A0086FDFCCF809178009091790041
:1003C00008953FB7F89480911B0390911C03A0916E
:1003D0001D03B0911E0326B5A89B05C02F3F19F041
:1003E0000196A11DB11D3FBFBA2FA92F982F8827B5
:1003F000BC01CD01620F711D811D911D42E0660F90
:10040000771F881F991F4A95D1F708958F929F9261
:10041000AF92BF92CF92DF92EF92FF924B015C01BD
:100420000E94E1016B017C010E94E1016C197D09D0
:100430008E099F09683E734081059105A8F321E06C
:10044000821A9108A108B10888EEC80E83E0D81E70
:10045000E11CF11C81149104A104B10429F7FF905F
:10046000EF90DF90CF90BF90AF909F908F900895C6
:100470002FB7F894609117037091180380911903B6
:1004800090911A032FBF0895CF92DF92EF92FF92BF
:100490000F931F93CF93DF93CDB7DEB7C054D140F6
:1004A0000FB6F894DEBF0FBECDBF0E943802009198
:1004B000BD061091BE062091BF063091C0066B01AB
:1004C0007C01C01AD10AE20AF30A97018601003DB5
:1004D00017402105310590F48091C506C05CDE4FC0
:1004E0000FB6F894DEBF0FBECDBFDF91CF911F9145
:1004F0000F91FF90EF90DF90CF9008956093BD062D
:100500007093BE068093BF069093C0061092B80603
:100510001092B7061092B6061092B5061092B40665
:1005200062E08091B9060E949E0161E070E080E087
:1005300090E00E94060261E08091B9060E949E014F
:1005400060E08091B9060E9470018091BA068551E1
:10055000823020F58BE291E10197F1F762E0809122
:10056000B9060E949E018091C60690E082309105F6
:1005700038F0880F991F880F991F05970197F1F799
:10058000F89480E00E94E6006F3F7F4F8F4F9F4FAF
:1005900061F41092C506789480E0A0CF64E170E029
:1005A00080E090E00E940602D9CF81E00E94E60040
:1005B0006F3F7F4F8F4F9F4F61F38E010F5F1F4F34
:1005C0006E012FEBC21A2EEFD20A780180E00E9452
:1005D000E600F701608371838283938381E00E9448
:1005E000E600F7016483758386839783F8E0EF0E56
:1005F000F11CEC14FD0451F7789430E020E0F80190
:10060000C080D180E280F38044815581668177810A
:10061000FFEFCF16DF06EF06FF0631F04F3F8FEFFB
:1006200058076807780719F41092C506B5CFF90185
:1006300083E0F595E7958A95E1F7EC54F94F8081D1
:10064000880FC416D506E606F70610F180832F5FE3
:100650003F4F085F1F4F2832310589F64091B80699
:100660002091B4068091B506280F3327331F80915F
:10067000B606280F311D8091B706820F932F911D6A
:1006800099274817190681F681E08093C50626CF81
:100690008160DCCFDC01ED91FC910190F081E02DD7
:1006A0000994AF92BF92CF92DF92EF92FF920F9395
:1006B0001F93CF93DF936C017B018B01040F151FF8
:1006C000EB015E01AE18BF08C017D10759F0699160
:1006D000D601ED91FC910190F081E02DC6010995C4
:1006E000892B79F7C501DF91CF911F910F91FF9071
:1006F000EF90DF90CF90BF90AF900895FC01538DA5
:10070000448D252F30E0842F90E0821B930B5417EB
:1007100010F0CF96089501970895FC01918D828D78
:10072000981761F0A28DAE0FBF2FB11D5D968C9111
:10073000928D9F5F9F73928F90E008958FEF9FEF50
:100740000895FC01918D828D981731F0828DE80F0C
:10075000F11D858D90E008958FEF9FEF0895FC01C6
:10076000918D228D892F90E0805C9F4F821B910993
:100770008F739927089589E995E00E94AF0321E0DE
:10078000892B09F420E0822F089580E090E0892BE6
:1007900029F00E94BB0381110C9400000895FC0114
:1007A000A48DA80FB92FB11DA35ABF4F2C91848DD2
:1007B00090E001968F739927848FA689B7892C932F
:1007C000A089B1898C91837080648C93938D848D82
:1007D000981306C00288F389E02D80818F7D808385
:1007E0000895EF92FF920F931F93CF93DF93EC0145
:1007F00081E0888F9B8D8C8D98131AC0E889F989C8
:10080000808185FF15C09FB7F894EE89FF896083CA
:10081000E889F98980818370806480839FBF81E04B
:1008200090E0DF91CF911F910F91FF90EF9008958D
:10083000F62E0B8D10E00F5F1F4F0F731127E02E68
:100840008C8D8E110CC00FB607FCFACFE889F989A0
:10085000808185FFF5CFCE010E94CF03F1CFEB8DD4
:10086000EC0FFD2FF11DE35AFF4FF0829FB7F89474
:100870000B8FEA89FB8980818062CFCFCF93DF9392
:10088000EC01888D8823B9F0AA89BB89E889F989A8
:100890008C9185FD03C0808186FD0DC00FB607FCDD
:1008A000F7CF8C9185FFF2CF808185FFEDCFCE0110
:1008B0000E94CF03E9CFDF91CF910895FC01908191
:1008C00090539A3008F090E0818180532AE0929F03
:1008D000800D112408958FB7F8948091D8028FBFAE
:1008E000089561E0FC0184810E9470018091D7022B
:1008F00081111092D70208958EBD00000DB407FE3D
:10090000FDCF8EB508958FEF0C947C040F931F9349
:10091000CF93DF93EC010E9438028B010E94830485
:100920008F3F69F00E943802601B710B6C177D07C6
:10093000A8F380E0DF91CF911F910F91089581E09E
:10094000F9CF8CBD9DBD0895CF93DF93EC018091CD
:10095000D702811109C081E08093D70280913606C9
:10096000909137060E94A10460E08C81DF91CF91C5
:100970000C9470018F929F92AF92BF92FF920F934F
:100980001F93CF93DF93EC01F62E49015A018E811C
:10099000882389F08F8198859C012F5F3F4F38878E
:1009A0002F838230924018F40E948304F3CFCE014B
:1009B0000E9471041E82CE010E94A4048CE291E088
:1009C0000E9486048F2D80640E947C0408E110E060
:1009D000D501C401002E04C0B695A79597958795BB
:1009E0000A94D2F70E947C0408501109083F8FEF47
:1009F000180771F785E9FF2021F028E087E8F21257
:100A00008FEF0E947C0410E00E9483048A8787FF96
:100A100004C01F3F11F01F5FF7CFDF91CF911F91EF
:100A20000F91FF90BF90AF909F908F900895AF92DD
:100A3000BF92CF92DF92EF92FF920F931F93CF93CB
:100A4000DF93EC016901C801820F931F813092404E
:100A500050F58E81882379F088819981AA81BB81A4
:100A600084179507A607B70731F48F819885C816B4
:100A7000D90608F042C0488359836A837B838B85FB
:100A8000833039F089E0440F551F661F771F8A9520
:100A9000D1F79A01AB0161E1CE010E94BA0488232B
:100AA00089F083E08D83CE010E94710480E0DF91A4
:100AB000CF911F910F91FF90EF90DF90CF90BF905B
:100AC000AF9008950E9438025B010E9483048A87D8
:100AD0008F3F69F40E9438026A197B096D327140B8
:100AE000A0F38FE08D83CE010E947104DCCF8E3F96
:100AF00089F418861F8281E08E838F8198858C15FA
:100B00009D0550F40E9483048F81988501969887F3
:100B10008F83F3CF8DE0E6CF6701E00EF11E0E94D8
:100B20008304F60181936F01EE15FF05C1F78F81F4
:100B30009885080F191F18870F838985882319F056
:100B400001151240A0F08E81882389F08F8198854D
:100B50009C012F5F3F4F38872F838230924018F4DB
:100B60000E948304F3CFCE010E9471041E8281E0B3
:100B70009ECFCF92DF92EF92FF920F93CF93DF93AE
:100B8000EC01690182E1411551056105710599F09A
:100B90008B85833039F089E0440F551F661F771F1E
:100BA0008A95D1F79A01AB0168E1CE010E94BA049F
:100BB000882319F084E08D832DC08EEF0E947C0481
:100BC00076018EEFD81AF70181917F010E947C0493
:100BD000EC14FD04C1F78FEF0E947C048FEF0E949C
:100BE0007C040E9483048A878F71853071F401111F
:100BF00016C0CE010E94710481E0DF91CF910F9168
:100C0000FF90EF90DF90CF90089581E18D83CE012A
:100C10000E947104CE010E94710480E0EECF88E54D
:100C200092E00E948604811102C085E1C4CF20E0D9
:100C300030E0A9016DE0CE010E94BA04882311F0D2
:100C400084E1B9CF0E9483048111FACFD2CF0F93F0
:100C50004091DA025091DB026091DC027091DD027A
:100C6000411551056105710599F0082F25E233E022
:100C700080912505909126050E94B905882349F0A9
:100C80001092DA021092DB021092DC021092DD0266
:100C900081E00F9108950F93CF93C82F8091D902CF
:100CA000811105C0C1E08C2FCF910F910895409123
:100CB00000015091010160910201709103010C2F1C
:100CC00025E233E080912505909126050E94B90523
:100CD000811102C0C0E0E7CFCC2321F381E00E9464
:100CE00027068823B9F31092D902DDCF8F929F9205
:100CF000AF92BF92EF92FF920F931F93CF934B014E
:100D00005C01C42F8091000190910101A09102012A
:100D1000B091030188159905AA05BB0551F181E041
:100D20000E944B0681110BC080E0CF911F910F9163
:100D3000FF90EF90BF90AF909F908F90089585E2C5
:100D4000E82E83E0F82E00E012E030E020E0B5016C
:100D5000A40180912505909126050E9417058823FE
:100D600019F38092000190920101A0920201B092C9
:100D700003014091D9024C2B4093D90281E0D5CF99
:100D80008F929F92AF92BF92CF92DF92EF92FF929B
:100D9000CF9328E336E0309326052093250588235A
:100DA00009F46DC040E060E070E0CB010E9476067F
:100DB00081110BC080E0CF91FF90EF90DF90CF903A
:100DC000BF90AF909F908F9008958091E3048F77AC
:100DD00089F78091EF049091F004A091F104B09113
:100DE000F20484369105A105B10520F3C090EB040F
:100DF000D090EC04E090ED04F090EE04C114D10426
:100E0000E104F104B9F240E0C701B6010E947606A0
:100E1000882381F2809130039091310381159240B3
:100E200049F6A0913503AA2329F26091330370910A
:100E300034036115710509F4BDCF209132032223DB
:100E400009F4B8CFA09356062093480690E080E0BE
:100E500030E0E1E0F0E0C82FAF01082E02C0440FFF
:100E6000551F0A94E2F72417350769F041E0480F4F
:100E700001968930910579F7409351069BCFC12C9B
:100E8000D12C7601C0CF8093510620913B03309145
:100E90003C0350E040E02115310541F42091490325
:100EA00030914A0340914B0350914C0320934906E3
:100EB00030934A0640934B0650934C064601570127
:100EC000860E971EA11CB11C809257069092580660
:100ED000A0925906B0925A06E0913603F09137037A
:100EE000F0935D06E0935C06B0E00E94BA2DDC0151
:100EF000CB01880D991DAA1DBB1D80935E069093A2
:100F00005F06A0936006B093610625E0EE0FFF1F19
:100F10002A95E1F7E150FE4FEF2FFF27E6958E0F60
:100F20009F1FA11DB11D8093520690935306A0935D
:100F30005406B09355068090380390903903B12C35
:100F4000A12C8114910441F48090450390904603B4
:100F5000A0904703B0904803C81AD90AEA0AFB0ACE
:100F6000C80CD91CEA1CFB1C04C0F694E794D79467
:100F7000C794CA95D2F7C0924D06D0924E06E09221
:100F80004F06F092500685EFC8168FE0D806E104B0
:100F9000F10428F48CE080935B0681E00CCF80E1C3
:100FA00025EFC2162FEFD206E104F104A0F38091E1
:100FB000510390915203A0915303B0915403809335
:100FC0005E0690935F06A0936006B093610680E290
:100FD000E2CF4F925F926F927F928F929F92AF92E9
:100FE000BF92CF92DF92EF92FF920F931F93CF9316
:100FF000DF93EC01423051056105710590F480E00A
:10100000DF91CF911F910F91FF90EF90DF90CF90E4
:10101000BF90AF909F908F907F906F905F904F9018
:10102000089589859A85AB85BC850196A11DB11D62
:1010300084179507A607B70710F3CB88DC88ED88DF
:10104000FE888F89803109F042C0BB27A72F962FD9
:10105000852F480159012A013B01C80ED91EEA1EFD
:10106000FB1E8091000190910101A0910201B091BD
:101070000301C816D906EA06FB0699F58F89803167
:10108000C1F5B301A201552766277727440F551FE5
:101090004B5D5C4FFA01918280828091D902816020
:1010A0008093D9028A89823080F08D819E81AF81C0
:1010B000B8858C0D9D1DAE1DBF1D8093DA029093E7
:1010C000DB02A093DC02B093DD0281E099CFDB016B
:1010D000CA01E7E0B695A79597958795EA95D1F768
:1010E000B8CF40E0C701B6010E9476068111C6CF95
:1010F00086CFB301A2014F77552766277727440F84
:10110000551F440F551F4B5D5C4FFA018082918241
:10111000A282B382C2CF8F929F92AF92BF92CF92A0
:10112000DF92EF92FF920F931F93CF93DF93FC0117
:1011300081859285A385B4850196A11DB11D841773
:101140009507A607B70770F480E0DF91CF911F9154
:101150000F91FF90EF90DF90CF90BF90AF909F9056
:101160008F90089583889488A588B6888789803170
:1011700089F5BB27A72F962F852FE9016A017B01EF
:101180008F01BC01CD01680D791D8A1D9B1D8090CA
:10119000000190900101A0900201B0900301861619
:1011A0009706A806B90601F5F8018789803111F57F
:1011B000DD24EE24FF24F601EE0FFF1FEB5DFC4F54
:1011C00080819181B0E0A0E088839983AA83BB836A
:1011D00081E0BBCFDB01CA01C7E0B695A795979523
:1011E0008795CA95D1F7C9CF40E00E947606811154
:1011F000DBCFAACFE894C7F8DD24EE24FF24F60164
:10120000EE0FFF1FEE0FFF1FEB5DFC4F8081918102
:10121000A281B381BF70D8CF4F925F926F927F92BD
:10122000AF92BF92CF92DF92EF92FF920F931F93F4
:10123000CF93DF9300D000D0CDB7DEB78C014983C8
:101240005A836B837C835901C12CD12C7601412CAC
:1012500082E0582E612C712C49815A816B817C81EE
:101260009E012F5F3F4FC8010E948B08882339F1F0
:10127000F8018585A301920104C0220F331F441F8A
:10128000551F8A95D2F7DA01C901C80ED91EEA1E88
:10129000FB1E49815A816B817C818789803111F1E4
:1012A00088EF9FEFAFEFBFE0481759076A077B074A
:1012B00098F2F501C082D182E282F38281E00F9040
:1012C0000F900F900F90DF91CF911F910F91FF9092
:1012D000EF90DF90CF90BF90AF907F906F905F9036
:1012E0004F90089588EF9FEFA0E0B0E0DDCFCF935F
:1012F000DF93FC012581222321F080E0DF91CF9153
:101300000895EC0180915B06803159F582E0858378
:10131000178A108E118E128E80915C0690915D0658
:10132000B0E0A0E025E0880F991FAA1FBB1F2A95F7
:10133000D1F7838B948BA58BB68B84E496E09C8F3E
:101340008B8F81E08C831E821F82188619861A86F5
:101350001B861C861D861E861F86188A198A1A8A75
:10136000CDCF803251F683E0858340915E06509167
:101370005F066091600670916106478B508F618FA8
:10138000728F9F012D5E3F4F84E496E00E940C090E
:101390008111D3CFB2CF8F929F92AF92BF92CF9253
:1013A000DF92EF92FF920F931F93CF93DF93EC01A5
:1013B0008D8181110EC080E0DF91CF911F910F913F
:1013C000FF90EF90DF90CF90BF90AF909F908F9065
:1013D00008950B891C892D893E8904171507260756
:1013E000370748F34A015B01823031F48A869B86D5
:1013F000AC86BD8681E0E0CF81149104A104B104E4
:1014000049F41E821F82188619861A861B861C863E
:101410001D86F0CF0A851B852C853D85EB8DFC8DC7
:10142000858590E00996B901A801415051096109EB
:101430007109082E04C076956795579547950A94CB
:10144000D2F775016401E1E0CE1AD108E108F10894
:1014500004C0F694E794D794C7948A95D2F7C4163B
:10146000D506E606F70620F0012B022B032B11F51B
:101470008F89988DA98DBA8D8E839F83A887B98710
:101480008E010A5F1F4FC114D104E104F10409F475
:10149000ADCF4E815F816885798598018B8D9C8D5C
:1014A0000E948B0891E0C91AD108E108F108811166
:1014B000EACF81CFC41AD50AE60AF70AE1CF3F92F4
:1014C0004F925F926F927F928F929F92AF92BF9254
:1014D000CF92DF92EF92FF920F931F93CF93DF9300
:1014E000CDB7DEB72C970FB6F894DEBF0FBECDBFD9
:1014F0005C01DC015B968D909C905C9716964D90FC
:101500005D906D907C9019974114510461047104B1
:1015100009F468C0BFEF4B1A5B0A6B0A7B0A312CD7
:10152000F40181859285A385B4859C01AD012F5F6F
:101530003F4F4F4F5F4F29873A874B875C87730137
:1015400062011D821E821F821886F40181859285A8
:10155000A385B4852D813E814F8158852817390791
:101560004A075B0708F056C089859A85AB85BC851C
:101570008C159D05AE05BF0550F482E0C82ED12C18
:10158000E12CF12C92E0492E512C612C712C9E0102
:101590002F5F3F4FB701A601C4010E948B0888232B
:1015A000C9F189819A81AB81BC81892B8A2B8B2BD4
:1015B00009F1260137019FEF491A590A690A790A88
:1015C0002D813E814F8158852F5F3F4F4F4F5F4F99
:1015D0002D833E834F8358873FEFC31AD30AE30A14
:1015E000F30AB3CFF40140805180628073803324CA
:1015F000339496CFC414D504E604F70409F70FEF2B
:101600001FEF2FEF3FE0B701A601C4010E94E907D9
:10161000811119C080E02C960FB6F894DEBF0FBE82
:10162000CDBFDF91CF911F910F91FF90EF90DF9091
:10163000CF90BF90AF909F908F907F906F905F9072
:101640004F903F900895D50116964D915D916D9103
:101650007C911997411551056105710539F0970184
:101660008601C4010E94E9078823A1F2D5011696DC
:10167000CD92DD92ED92FC921997332051F0D70173
:10168000C6010196A11DB11DF40180839183A2833F
:10169000B383F5018789908DA18DB28D892B8A2B1B
:1016A0008B2B39F48481C78AD08EE18EF28E8068CC
:1016B0008483F50184818062848381E0ACCF1F93B1
:1016C000CF93DF93FC0125812223D1F1162FEC016A
:1016D000848187FF2AC0668577858089918941E06A
:1016E0000E947606882361F1EA8980E2E89FF00192
:1016F0001124EB5DFC4F309719F18D81823040F45D
:101700008B899C89AD89BE89848F958FA68FB78F71
:101710008F89988D938F828F8F89988DA98DBA8D9F
:10172000B58BA48B8C818F778C83111103C08C8136
:101730008F7E8C83812FDF91CF911F910C944B066C
:1017400080E0DF91CF911F910895FF920F931F9337
:10175000CF93DF93EC018D81813041F090E080E008
:10176000DF91CF911F910F91FF9008958C8181FFA0
:10177000F5CF82FD1BC00091250510912605C801FB
:101780000E94A4040E948304F82EC8010E947104E0
:101790008FEFF812E3CF8C8185FF1BC060E0CE0194
:1017A0000E945F0B8C818F7D8C83D8CF4B895C89A5
:1017B0006D897E898A859B85AC85BD858417950753
:1017C000A607B707C1F2CE010E94CB098111D3CF82
:1017D000C5CF4091DA025091DB026091DC0270913A
:1017E000DD02452B462B472B21F080E00E94270687
:1017F000B5CF80618C832A853B85317080E092E093
:10180000821B930BADCFCF93DF93EC0161E00E947D
:101810005F0B882311F01D8281E0DF91CF91089545
:101820002F923F924F925F926F927F928F929F92F0
:10183000AF92BF92CF92DF92EF92FF920F931F93DE
:10184000CF93DF9300D000D01F92CDB7DEB77C01DD
:101850005B01342E5D83DC0115968C9115978130E8
:1018600009F0CEC014962C9021FECAC022FCB4C050
:10187000C32CDD8022947FE027222094B22DB1700A
:101880002B2ED7011A964D915D916D917C911D97EC
:10189000C114D10409F428C15B968D919C915C9789
:1018A000FC0174807A948A019B0169E03695279542
:1018B000179507956A95D1F770228A0111707110FA
:1018C00020C001151105E9F416964D915D916D91B9
:1018D0007C911997411551056105710509F099C071
:1018E00057968D919D910D90BC91A02D0097A105CB
:1018F000B10509F0B0C0C7010E945F0A882309F44E
:101900007FC080E092E0801B910B46018C159D0505
:1019100008F44C01D7015B964D915C915C9716964B
:101920008D919D910D90BC91A02D0297A109B109B7
:10193000FA01258504C0880F991FAA1FBB1F2A958D
:10194000D2F74685578560897189840F951FA61F38
:10195000B71F9C01AD01270D311D411D511D2901EE
:101960003A01811432E0930609F07BC080910001B6
:1019700090910101A0910201B09103018415950598
:10198000A605B70559F48FEF9FEFDC0180930001A6
:1019900090930101A0930201B0930301022D9501E0
:1019A000B301A20180912505909126050E94B905F9
:1019B000882331F19EEFB91AC818D908F70182853A
:1019C0009385A485B585880D991DA11DB11D8287BC
:1019D0009387A487B58755CFF701438954896589D3
:1019E000768982859385A485B585481759076A0746
:1019F0007B0709F43DCFC7010E94CB09811138CF85
:101A000081E090E0D70113969C938E93129780E02B
:101A100007C09E012F5F3F4F0E948B08811102C0BB
:101A200090E079C089819A81AB81BC81F701238DD7
:101A3000348DF901278948EF5FEF60E070E02031D5
:101A400021F048EF5FEF6FEF7FE084179507A6075F
:101A5000B70708F050CFF70186839783A087B18737
:101A600050CF0115110599F5D7011A964D915D9149
:101A70006D917C911D9753968D919D910D90BC9188
:101A8000A02D481759076A077B0708F181E00E94DB
:101A90004B06882309F4B4CF409200015092010113
:101AA00060920201709203018091D902816080935B
:101AB000D902C8018B5D9C4FD5019C01280D391DB1
:101AC000FC012E173F0759F04D914193FACF41E0A9
:101AD000C301B2010E9476068111EBCF91CF281B82
:101AE000390BA20EB31E68CFF70183899489A589AB
:101AF000B68984179507A607B70738F48481438B06
:101B0000548B658B768B80688483F701848183FD99
:101B10001AC0832D9D810F900F900F900F900F9002
:101B2000DF91CF911F910F91FF90EF90DF90CF90B9
:101B3000BF90AF909F908F907F906F905F904F90ED
:101B40003F902F90089561E0C7010E945F0B8823AA
:101B500009F456CFDECFCF93DF931F92CDB7DEB718
:101B6000698341E050E0BE016F5F7F4F0E94100C1F
:101B70000F90DF91CF910895FC01DB0112968D91BA
:101B80009C911397938382838CE491E0918380836B
:101B900014968C911497848315968C911597858350
:101BA00016964D915D916D917C911997468357835F
:101BB000608771871A964D915D916D917C911D970B
:101BC00042875387648775871E964D915D916D910D
:101BD0007C91519746875787608B718B52968C9179
:101BE0005297828B53964D915D916D917C91569752
:101BF000438B548B658B768B57964D915D916D9190
:101C00007C915A97478B508F618F728F5B968D9125
:101C10009C91948F838F0895FC01818D928D009704
:101C200019F061E00C945F0B0895DC015996ED9179
:101C3000FC913097B9F083899489A589B68942854A
:101C4000538564857585841B950BA60BB70B811591
:101C500020E89207A105B10538F08FEF9FE7A0E0DB
:101C6000B0E0089590E080E00895DC0159968D91F0
:101C70009C91009739F0DC01ED91FC910480F58195
:101C8000E02D099490E080E00895CF93DF93EC017C
:101C9000E98DFA8D309749F481E090E09B838A8347
:101CA00090E080E0DF91CF91089513821282898DB8
:101CB0009A8D0E94100CE98DFA8D22813381232B9D
:101CC00059F7F0CFCF93DF931F92CDB7DEB769837B
:101CD000DC01ED91FC910280F381E02D41E050E0C8
:101CE000BE016F5F7F4F09950F90DF91CF910895EF
:101CF0002F923F924F925F926F927F928F929F921C
:101D0000AF92BF92CF92DF92EF92FF920F931F9309
:101D1000CF93DF9300D01F92CDB7DEB7FC01858152
:101D2000811118C08FEF9FEF0F900F900F90DF91F0
:101D3000CF911F910F91FF90EF90DF90CF90BF90C8
:101D4000AF909F908F907F906F905F904F903F905B
:101D50002F900895848180FFE5CF43895489658958
:101D6000768982859385A485B585312C212C4817E9
:101D700059076A077B0719F022242394312C6F013D
:101D80002101CE0101963C01DF011696BB83AA8397
:101D90004114510409F4C5C0F60142855385648598
:101DA00075854A01F1E09F22D6015B968D919C9149
:101DB0005C978A019B01E9E0369527951795079571
:101DC000EA95D1F71596EC91E230E9F5FC01628DC8
:101DD000738D848D958D600F711F821F931FA12CB1
:101DE00022E0B22EA818B9084A145B0408F4520184
:101DF000F601248126FD04C0A114F2E0BF0671F4AF
:101E00000091000110910101209102013091030124
:101E1000061717072807390709F05EC040E00E943F
:101E20007606882309F47ECFC4018B5D9C4FD301D5
:101E30009C012A0D3B1DFC012E173F0709F46CC0C5
:101E400041914D93F9CFDC011496BC90BA94B02225
:101E50008114910479F4B1100DC0452B462B472B0A
:101E600069F5F6018789908DA18DB28D8683978360
:101E7000A087B187D6015B96ED91FC915C97169691
:101E80006D917D918D919C91199762507109810995
:101E90009109258504C0660F771F881F991F2A9511
:101EA000D2F70685178520893189600F711F821F3F
:101EB000931F6B0D711D811D911D91CFD60116963B
:101EC0004D915D916D917C9119972A813B810E9482
:101ED0008B088111CFCF26CF730185019401AB010F
:101EE000BC0180912505909126050E941705882345
:101EF00009F418CF6A0C7B1CF60182859385A485B2
:101F0000B5858A0D9B1DA11DB11D82879387A4876E
:101F1000B5874A185B083CCF281B390B620E731E2D
:101F2000EBCF2A94232809F0FDCE898190E0FCCEE6
:101F3000FC01818D928D009711F00C94780E8FEF3B
:101F40009FEF08950F931F93CF93DF93EC01898D3B
:101F50009A8D10E000E0009799F00E94780E8C01B5
:101F60000F3F100769F0898D9A8DFC0142855385DA
:101F70006485758541505109610971090E94CB0939
:101F8000C801DF91CF911F910F910895089520917D
:101F9000B402260F3327331F21323105ECF4209190
:101FA0006F05FC0190E080E0243069F082E0089544
:101FB000A091B4022191AC014C565D4FA40FB52FF6
:101FC000B11D2C930196861798F38091B402680F87
:101FD0006093B40280E0089581E0089510926F0547
:101FE00081E080936E051092490561E082E10E94D4
:101FF000700161E083E10E947001E9EBF0E0808113
:102000008E7F808380818D7F808388E48093B80079
:1020100085E48093BC00089510922805109227054E
:1020200010927605109298050E94EE0F84EE90E0D3
:10203000909322038093210385EE90E090932003F8
:1020400080931F030895CF93DF9391E090939302C1
:102050008823B9F0C091B800D091BA008091BC003B
:102060008A7B8093BC0060E082E10E94700160E0A6
:1020700083E10E9470010E94EE0FD093BA00C093DA
:10208000B800DF91CF9108958F929F92AF92BF9247
:10209000CF92DF92EF92FF920F931F93CF93DF9334
:1020A000D0919805D13208F0D7C0182FC09197056C
:1020B0000E94E1016B017C0180916F0581116BC071
:1020C00082E080936F0510936E058FEF80936D050E
:1020D00010926C05D0936B05A7E7B5E0EBE4F5E053
:1020E00080E0D81391C010924A0580914A05CC0F28
:1020F000C82BC0934A0580914905813009F088C0FA
:10210000109249050E94E1016B017C0180914A0512
:102110008093BB008091710590917205A091730529
:10212000B0917405892B8A2B8B2BA1F00E94E101C1
:10213000009171051091720520917305309174051D
:102140006C197D098E099F0906171707280739079B
:1021500008F442C08091BC0083FDD8CF85EC809309
:10216000BC000E94E1016B017C0180916F0582300F
:1021700009F450C080916D058F3F09F46FC08091C4
:102180006D05803209F46CC080916D05803309F4CF
:1021900069C084E026C08091710590917205A0917C
:1021A0007305B0917405892B8A2B8B2B09F484CF8E
:1021B0000E94E1018090710590907205A0907305D6
:1021C000B09074056C197D098E099F0986169706D3
:1021D000A806B90608F070CF809170050E94231000
:1021E00085E0109276051092980510927505DF91A2
:1021F000CF911F910F91FF90EF90DF90CF90BF9004
:10220000AF909F908F9008959D9191938F5F69CF2C
:1022100085EEA5CF8091710590917205A09173050F
:10222000B0917405892B8A2B8B2B09F49ECF0E94C9
:10223000E1010091710510917205209173053091B3
:1022400074056C197D098E099F0906171707280761
:10225000390708F08ACFC0CF81E0C3CF80E0C1CF7B
:1022600082E0BFCF83E0BDCFCF93DF93EC018B81C2
:102270008823A1F0888191E090937505809397055C
:10228000109276051092980581E00E94441091E02A
:10229000811190E0892FDF91CF9108950E940C1059
:1022A00081E08B83CE010E943411982F8111E2CFFF
:1022B000F1CF0895E091280580912705E81730F4C3
:1022C000F0E0E75DFA4F808190E008958FEF9FEF97
:1022D000089590912805809127052FEF3FEF9817DB
:1022E00048F4E92FF0E0E75DFA4F208130E09F5F8E
:1022F00090932805C901089580912705909128059C
:10230000891B990B0895CF92DF92EF92FF920F9362
:102310001F93CF93DF937C01CB018A012091750538
:10232000222389F0EB016B01C40ED51ECC15DD050F
:1023300069F06991D701ED91FC910190F081E02D58
:10234000C7010995F3CF642F0E94C70FC801DF9121
:10235000CF911F910F91FF90EF90DF90CF90089554
:10236000CF93DF931F92CDB7DEB7698320917505B8
:102370002223F9F020919805203258F021E030E036
:10238000FC013383228390E080E00F90DF91CF91B6
:10239000089580917605E82FF0E0E958FA4F998189
:1023A00090838F5F809376058093980581E090E01D
:1023B000ECCF61E0CE0101960E94C70FF7CFFC0180
:1023C000248131E0309375052093970510927605AE
:1023D000109298058385682B81E896E00E94B011E1
:1023E00081E00C94441090E080E008958F929F92D9
:1023F000AF92BF92CF92DF92EF92FF92CF93DF9393
:10240000BC01E091E402E730B0F4F0E0E45FFD4E9F
:10241000C091E3020C944A2F1312FC123213621380
:102420008013AE13CE13C111E0C08091130191E06F
:102430008927809313018090F5029090F602A09076
:10244000F702B090F802A50194016091200170910B
:10245000210180912201909123010E94772C18166E
:1024600084F020E030E040E05FE3C501B4010E9469
:10247000FF2D60932001709321018093220190939E
:102480002301C0901801D0901901E0901A01F0903A
:102490001B01A701960160911C0170911D018091A3
:1024A0001E0190911F010E94772C181684F020E0E5
:1024B00030E040E85FE3C701B6010E94FF2D609362
:1024C0001C0170931D0180931E0190931F01C09108
:1024D0001401D09115018091160190911701C81730
:1024E000D90734F0CE010A96909317018093160114
:1024F00020E030E048E452E4609120017091210135
:1025000080912201909123010E940C2F181664F4EF
:1025100080E090E0A8E4B2E4809320019093210150
:10252000A0932201B093230120E030E040EA51EC77
:10253000C501B4010E94772C87FF0CC080E090E0B9
:10254000A0EAB1EC8093F5029093F602A093F70213
:10255000B093F80220E030E048EC52E460911C01B6
:1025600070911D0180911E0190911F010E940C2FFE
:10257000181664F480E090E0A8ECB2E480931C01AB
:1025800090931D01A0931E01B0931F0120E030E045
:10259000A901C701B6010E94772C87FF08C01092DD
:1025A00018011092190110921A0110921B018091CA
:1025B0001601909117018115944034F08FEF93E04C
:1025C0009093170180931601D7FF04C01092150154
:1025D00010921401DF91CF91FF90EF90DF90CF9098
:1025E000BF90AF909F908F9008958091270191E0C8
:1025F0008927809327011FCF072E000C880B990B8A
:102600000E947E2C20E030E040E05FE30E94DD2C61
:102610009B01AC01C11113C0609120017091210197
:1026200080912201909123010E94FF2D609320014F
:10263000709321018093220190932301FCCE60913D
:10264000F5027091F6028091F7029091F8020E94D3
:10265000FF2D6093F5027093F6028093F70290933A
:10266000F802E9CE072E000C880B990B0E947E2CF5
:102670009B01AC01C11113C060911C0170911D013F
:1026800080911E0190911F010E94FF2D60931C01FB
:1026900070931D0180931E0190931F01CCCE609119
:1026A00018017091190180911A0190911B010E94EB
:1026B000FF2D609318017093190180931A01909374
:1026C0001B01B9CE8AE0869F9001879F300D1124AF
:1026D000C1110BC08091160190911701820F931FB9
:1026E0009093170180931601A6CE809114019091CA
:1026F0001501820F931F90931501809314019BCEB7
:10270000C11107C08091260191E08927809326019D
:1027100092CE2AE0269FC001279F900D1124209180
:10272000240130912501820F931F8A3091059CF07E
:10273000909325018093240180912401909125019B
:1027400081319E400CF477CE80E19EE0909325018C
:102750008093240170CE8AE090E0EACFC11107C0D7
:102760008091120191E089278093120164CE880F35
:10277000880F680F80911101680F6A3058F06093DC
:10278000110180911101893708F455CE88E78093B3
:10279000110151CE8AE080931101F3CF072E000C76
:1027A000880B990B0E947E2CC1114CC020E030E0B8
:1027B00040E05FE30E94DD2C20910D0130910E017D
:1027C00040910F01509110010E94FF2D6B017C017F
:1027D00020E030E040E251E40E940C2F18162CF16A
:1027E000C0920D01D0920E01E0920F01F092100103
:1027F00020E030E040E251EC60910D0170910E015B
:1028000080910F01909110010E94772C87FF13CEC9
:1028100080E090E0A0E2B1EC80930D0190930E0176
:10282000A0930F01B093100106CE80E090E0A0E2EB
:10283000B1E480930D0190930E01A0930F01B0932A
:102840001001D6CF2091090130910A0140910B016E
:1028500050910C010E94FF2D6B017C0120E030E0C3
:1028600040EA51E40E940C2F18162CF1C092090185
:10287000D0920A01E0920B01F0920C0120E030E0CE
:1028800040EA51EC6091090170910A0180910B01BD
:1028900090910C010E94772C87FFCDCD80E090E0D5
:1028A000A0EAB1EC8093090190930A01A0930B0177
:1028B000B0930C01C0CD80E090E0A0EAB1E4809339
:1028C000090190930A01A0930B01B0930C01D6CF9C
:1028D0008F929F92AF92BF92CF92DF92EF92FF9230
:1028E000CF930E944402882349F08091BA068B302E
:1028F00028F08D3050F085518230C8F1812C912C18
:1029000030ECA32E3FE7B32E1EC06091B50670E0F9
:1029100090E080E00E947E2C2DEC3CEC4CEC5DE3E2
:102920000E94DD2C6B017C016091B40670E090E0A8
:1029300080E00E947E2C9B01AC01C701B6010E9481
:10294000FF2D4B015C010E944402882309F4EDC075
:102950008091BA068C3009F4B6C0D8F48B3091F16E
:10296000C12CD12C90ECE92E9FE7F92E55C0609137
:10297000B4067091B50676276727762790E080E049
:102980000E947C2C2DEC3CEC4CEC5DE30E94DD2C99
:10299000D8CF8551823020F7C091B6066C2F70E0F9
:1029A000762F662766277F778091B706682B90E0A1
:1029B00080E00E947C2C2DEC3CEC4CEC5DE30E9412
:1029C000DD2C9DC06091B60670E090E080E00E9432
:1029D0007C2C6B017C01C091B706C7FF0AC0AC011B
:1029E0009B0160E070E080E89FEB0E94FE2D6B0190
:1029F0007C01CF706C2F70E090E080E00E947E2C14
:102A00002DEC3CEC4CEC5DE30E94DD2CA701960123
:102A10000E94FF2D6B017C01A5019401C501B40149
:102A20000E94112F882309F48EC0A7019601C701C7
:102A3000B6010E94112F811114C0A7019601609167
:102A40000D0170910E0180910F01909110010E9473
:102A5000FF2D6093F9027093FA028093FB0290932A
:102A6000FC028EE00E94CF01853823E0920714F02B
:102A700084E893E08436910514F484E690E09C01A8
:102A8000990F440B550B2456310941095109ACE902
:102A9000BFEF0E94C82D20E233E040E050E00E94EA
:102AA0009B2D2C593F4F4F4F5F4F3093F002209397
:102AB000EF02CF91FF90EF90DF90CF90BF90AF905B
:102AC0009F908F900895C091B6066C2F70E090E0B3
:102AD00080E00E947C2C6B017C016091B7066F70D6
:102AE00070E090E080E00E947E2C2DEC3CEC4CEC01
:102AF0005DE30E94DD2CA70196010E94FF2D6B0172
:102B00007C01C7FF89CFF7FAF094F7F8F09484CFEF
:102B100080E090E0A8ECB2E48093F1029093F2029E
:102B2000A093F302B093F4022CC0A5019401C50157
:102B3000B4010E94112F811194CFC12CD12C80ECB3
:102B4000E82E8FE7F82E2091090130910A0140917B
:102B50000B0150910C01C501B4010E94FF2D4B01E6
:102B60005C0120E030E048EC52E40E940C2F181683
:102B70007CF28092F1029092F202A092F302B09263
:102B8000F40220E030E0A9016091F1027091F202BC
:102B90008091F3029091F4020E94772C87FF45CF39
:102BA0001092F1021092F2021092F3021092F402CB
:102BB0003CCF9091C00095FFFCCF8093C600089554
:102BC0002F923F924F925F926F927F928F929F923D
:102BD000AF92BF92CF92DF92EF92FF920F931F932B
:102BE000CF93DF935C011B016A01F12CE12CD5012D
:102BF00014968D919C9186010E191F0980179107DB
:102C000008F48C01F501D0810E94E1012B013C0107
:102C100080916F05811172C0C02F013208F0C0E2AF
:102C2000F1E0F0936F0521E0C601801B910BE816DF
:102C3000F90608F420E020936E058FEF80936D0570
:102C400010926C058C0F80936B05A1E0A0934A0550
:102C500080914A05DD0FD82BD0934A058091490514
:102C6000813009F090C0109249050E94E1012B01CA
:102C70003C0180914A058093BB0080917105909141
:102C80007205A0917305B0917405892B8A2B8B2B4B
:102C9000A1F00E94E10120917105309172054091EF
:102CA00073055091740564197509860997092617EB
:102CB00037074807590708F442C08091BC0083FDDC
:102CC000D8CFB5ECB093BC000E94E1012B013C01D0
:102CD00080916F05813009F45AC080916C058C1782
:102CE00010F4C0916C05ABE4B5E0E9E2F5E080E0FA
:102CF0008C1751F19D9191938F5FFACF809171055F
:102D000090917205A0917305B0917405892B8A2B5F
:102D10008B2B09F47DCF0E94E10120917105309148
:102D200072054091730550917405641975098609FF
:102D30009709261737074807590708F069CF809188
:102D400070050E942310C0E010922805C09327054B
:102D5000C017110609F057C041018E0C9F1CE401F9
:102D6000CE01881999098017910798F5D501119618
:102D70008D919C91DC01ED91FC910284F385E02D15
:102D800009958993EDCFE5EEE093BC009DCF80914E
:102D9000710590917205A0917305B0917405892B0E
:102DA0008A2B8B2B09F494CF0E94E10120917105AD
:102DB000309172054091730550917405641975093D
:102DC00086099709261737074807590708F080CF63
:102DD000B6CFE00EF11EEC14FD0408F408CF81E03C
:102DE000DF91CF911F910F91FF90EF90DF90CF90E7
:102DF000BF90AF909F908F907F906F905F904F901B
:102E00003F902F90089580E0EBCF1F93CF93DF93F7
:102E1000DC011496ED91FC91E417F50710F490E0B5
:102E20001FC0122FEA01FC0181819281208131E0D3
:102E300030937505209397051092760510929805AA
:102E4000DC01ED91FC910280F381E02D0995C8171A
:102E5000D90729F7812F0E94441091E08111DFCF1B
:102E6000892FDF91CF911F910895CF93DF9300D0E9
:102E7000CDB7DEB78FE08A8321E041E050E0BE01AC
:102E80006E5F7F4F80912303909124030E9405176A
:102E900041E050E0BE016F5F7F4F8091230390912E
:102EA00024030E94E01589810F900F90DF91CF914C
:102EB0000895CF92DF92EF92FF921F93CF93DF930B
:102EC000EC0180E2689FF0011124EB5DFC4F9385DB
:102ED000917161F0842F827449F080E0DF91CF918D
:102EE0001F91FF90EF90DF90CF900895142F6A8B81
:102EF0008091000190910101A0910201B091030124
:102F00008E879F87A88BB98BC488D588F12CE12C3C
:102F10007601DD24CC24CF8AD88EE98EFA8E828D7C
:102F2000938DB0E0A0E0AC01BD014C295D296E2974
:102F30007F294F8B588F698F7A8F83858871B1F481
:102F4000848D958DA68DB78D8B8B9C8BAD8BBE8B19
:102F500081E08D831F701C831E821F821886198654
:102F60001A861B861C861D8681E0B8CF803109F049
:102F7000B4CF9E012D5E3F4F8B8D9C8D0E940C091E
:102F8000882309F4AACF84E0E4CF0F931F93CF9353
:102F90008C01C62F0E94DF116C2F6460C8010E9453
:102FA000DF116C2F6B7FC8010E94DF1183EC90E072
:102FB0000197F1F7CF911F910F9108950F931F93F0
:102FC000CF93DF938C01D62FC42F607F642B0E9498
:102FD000C51780E1D89FB00111246C2BC801DF9187
:102FE000CF911F910F910C94C517CF93DF93CDB75D
:102FF000DEB728970FB6F894DEBF0FBECDBF98E0BE
:10300000EEE2F1E0DE01119601900D929A95E1F762
:103010009091B006981708F48FEF90E0880F991FF1
:1030200021E030E02C0F3D1F820F931FFC016081D7
:10303000606840E088EA96E028960FB6F894DEBF14
:103040000FBECDBFDF91CF910C94DE1741E00E94FF
:10305000DE1781E090E00895FB0101900020E9F780
:103060003197AF01461B570BDC01ED91FC910280BB
:10307000F381E02D09948F929F92AF92BF92EF92CD
:10308000FF920F931F93CF93DF93CDB7DEB7A19736
:103090000FB6F894DEBF0FBECDBF7C01FA01CB01A5
:1030A00019A2223008F42AE08E010F5D1F4F822EF4
:1030B000912CB12CA12CBF01A50194010E94CD2D12
:1030C000F901CA016A300CF5605DD8016E938D017B
:1030D000232B242B252B79F790E080E0109721F00B
:1030E000BD01C7010E942C18A1960FB6F894DEBF4F
:1030F0000FBECDBFDF91CF911F910F91FF90EF9049
:10310000BF90AF909F908F900895695CDECF462F5F
:1031100050E070E060E02AE00C943B18CF92DF9220
:10312000EF92FF920F931F93CF93DF936B01770F73
:10313000EE08FF08F7FE1BC0EC016DE20E944A0397
:103140008C0144275527BA014C195D096E097F0986
:103150002AE0CE010E943B18800F911FDF91CF9192
:103160001F910F91FF90EF90DF90CF9008952AE08C
:10317000B701A601DF91CF911F910F91FF90EF90C2
:10318000DF90CF900C943B18BC0188EA96E00C9439
:103190002C184F925F926F927F928F929F92AF9274
:1031A000BF92EF92FF920F931F93CF93DF938C0107
:1031B0004A015B01E22EAB019401CB01B4010E94F4
:1031C000112F64E871E0811126C024013501E894D3
:1031D00077F82FEF3FEF4FE75FE7C301B2010E949F
:1031E000112F81110CC02FEF3FEF4FE75FE7C301B5
:1031F000B2010E94772C68E871E0181664F02FEF96
:103200003FEF4FE75FE4C501B4010E940C2F181691
:103210009CF46CE871E0C801DF91CF911F910F9190
:10322000FF90EF90BF90AF909F908F907F906F90A6
:103230005F904F900C942C182FEF3FEF4FE75FEC0F
:10324000C501B4010E94772C87FDE3CF20E030E078
:10325000A901C501B4010E94772CD0E0C0E087FF2E
:1032600009C06DE2C8010E944A03EC01B7FAB094AC
:10327000B7F8B094FE2C712C60E070E080E09FE322
:103280007E1440F420E030E040E251E40E946B2ED6
:103290007394F6CFA50194010E94FF2D4B015C01B0
:1032A0000E94DD2E2B013C012AE0BC01A201C801D5
:1032B0000E943B18C80FD91FEE20D1F1C301B20103
:1032C0000E947C2C9B01AC01C501B4010E94FE2D23
:1032D0004B015C016EE2C8010E944A03C80FD91F6E
:1032E000FA948FEFF81621F120E030E040E251E44B
:1032F000C501B4010E94DD2C2B013C010E94DD2E92
:103300004B01B12CA12C2AE0B501A401C8010E94F7
:103310003B18C80FD91FC501B4010E947C2C9B012A
:10332000AC01C301B2010E94FE2D4B015C01D8CF5C
:10333000CE01DF91CF911F910F91FF90EF90BF9041
:10334000AF909F908F907F906F905F904F90089577
:103350003F924F925F926F927F928F929F92AF9225
:10336000BF92CF92DF92EF92FF920F931F93CF9372
:10337000DF93CDB7DEB72B970FB6F894DEBF0FBE45
:10338000CDBF7C01FE013196CE010C966F0130E27B
:103390003193E817F907E1F7DA0130E087E09D9112
:1033A000B92E992309F43CC09E32F1F48A30C9F455
:1033B00080E02B960FB6F894DEBF0FBECDBFDF9135
:1033C000CF911F910F91FF90EF90DF90CF90BF9022
:1033D000AF909F908F907F906F905F904F903F90B5
:1033E000089538E08AE0DBCFE8E6F0E0449144233A
:1033F00021F031969413FACFDBCF8317C8F24FED4B
:10340000490F4E35A8F64FE9490F4A3118F440EEFE
:10341000B42EB90EF601E30FF11DB0823F5FBFCFAE
:103420008981803229F2322E8B01DB015B968D91EE
:103430009C915C97F701948F838F16961D921D9235
:103440001D921C921997FB0112861386148615860D
:10345000F80182859385A485B5854389548965895A
:10346000768984179507A607B70708F04DC025E0B1
:10347000B695A795979587952A95D1F7F82FFF7060
:10348000AF2ED80115968C91823008F491CFC801E7
:103490000E94780E97FD8CCFF80182859385A485D4
:1034A000B5854F96A11DB11D82879387A487B587E7
:1034B000F0E2AF9EB00111246B5D7C4F6115710588
:1034C00009F476CFDB018C91882341F0853E09F029
:1034D00062C0BB2029F0BB24B394BACFB1100EC098
:1034E000F701A28A8091000190910101A09102014F
:1034F000B091030186879787A08BB18BDB018C91FC
:103500008111E9CFBB24B394832D8271823109F0FC
:103510004FCFBB2009F44DC0F701668577858089C0
:10352000918941E00E947606882309F441CFD701B2
:1035300052968C91B0E28B9FC00111248B5D9C4F01
:10354000009709F435CFFC013A9626E1DF011D9280
:103550002A95E9F72BE0F601DC0101900D922A95FE
:10356000E1F721E238E2FC01318B208B40E058E0AA
:1035700057874687338B228B318F208F578B468B13
:1035800081E00E944B06882309F412CF432DD70116
:1035900052966C910AC04BE050E0C6010E947C300C
:1035A000892B09F055CF432D6A2DC7010E94591769
:1035B00000CFF8018581823009F4FACEC8010E945B
:1035C0005F0A882309F4F4CED8015B96ED91FC9153
:1035D0005C9716968D909D90AD90BC901997B2E037
:1035E0008B1A9108A108B108858504C0880C991C24
:1035F000AA1CBB1C8A95D2F786859785A089B189BC
:10360000880E991EAA1EBB1E848124013501480E16
:10361000511C611C711C84149504A604B70409F1A3
:10362000E1E04E1A51086108710881E00E944B06E2
:10363000882309F4BDCEE5E2F3E0119285E295E03E
:103640008E179F07D1F740920001509201016092BE
:103650000201709203018091D90281608093D902A6
:10366000DACFD8015B96ED91FC91258580E092E060
:10367000A0E0B0E004C0880F991FAA1FBB1F2A95C5
:10368000D2F7F8014389548965897689840F951F9B
:10369000A61FB71F838B948BA58BB68BD701529631
:1036A0001C9285E293E04FCFEF92FF920F931F930E
:1036B000CF93DF93EC017B018A011B821A8288EE93
:1036C00093E0A0E0B0E08C839D83AE83BF838AE665
:1036D00091E0998388838DE190E00E94572F9A8F23
:1036E000898F009779F02DE1F701DC0101900D92AF
:1036F0002A95E1F74CE050E0B801CE010C960E940B
:103700008930188EDF91CF911F910F91FF90EF902C
:103710000895EF92FF920F931F93CF93DF93CDB74E
:10372000DEB7C755D1090FB6F894DEBF0FBECDBFC7
:103730008C011C821B828CE4E82E81E0F82EFA8238
:10374000E9821E82CE0101960E947709BE016F5F59
:103750007F4FCE01CB960E94BC0D19A218A2FF8EFE
:10376000EE8E1BA221968FAD2197811121C0F80109
:103770001382128288EE93E0A0E0B0E08483958308
:10378000A683B7838AE691E091838083128E118E9F
:103790001486C801C95ADF4F0FB6F894DEBF0FBEBA
:1037A000CDBFDF91CF911F910F91FF90EF900895C2
:1037B00027E140E951E0BE01655C7F4FCE014E96A6
:1037C0000E94A819882399F2CE01CB960E94030C7F
:1037D00049A95AA96BA97CA9CE014E960E94CB0992
:1037E000BE01625E7F4FCE0101960E94BC0D40E992
:1037F00051E0BE016F5F7F4FC8010E94541BC9CFCB
:10380000DF92EF92FF920F931F93CF93DF93CDB789
:10381000DEB76B970FB6F894DEBF0FBECDBF8091B9
:103820000203882309F4F3C080910103882309F47B
:10383000EEC01982009123031091240320E041E09F
:1038400050E0BE016F5F7F4FC8010E9405178823BB
:1038500041F047E050E0BE016F5F7F4FC8010E941A
:10386000E015FA80DB801D81EE80CE0101960E947A
:10387000891BCE0101960E94AD00E091A606F09151
:10388000A706309709F4C3C08581882309F4BFC017
:103890002D2D30E044E0359527954A95E1F7822FAC
:1038A000880F880F022F081B000F0D0D2E2D2F776C
:1038B000822F90E054E0959587955A95E1F7982FDF
:1038C000990F990F682F691B660F620F8DE896E0BC
:1038D0000E9487186FE28DE896E00E944A03812FCC
:1038E00090E064E0959587956A95E1F7982F990F98
:1038F000990F682F691B660F610F8DE896E00E9493
:1039000087186CE28DE896E00E944A030A3028F49A
:1039100060E38DE896E00E944A038F2D90E024E05A
:10392000959587952A95E1F7982F990F990F182F5C
:10393000191B110F1F0D602F8DE896E00E9487184C
:103940006AE38DE896E00E944A031A3028F460E3A7
:103950008DE896E00E944A03612F8DE896E00E9470
:1039600087186CE28DE896E00E944A034091F902C4
:103970005091FA026091FB027091FC0222E030E06B
:103980008DE896E00E94C9186CE28DE896E00E94EE
:103990004A034091F1025091F2026091F30270915A
:1039A000F40222E030E08DE896E00E94C9186CE253
:1039B0008DE896E00E944A036091EF027091F00258
:1039C0008DE896E00E948E186CE28DE896E00E94E9
:1039D0004A036091EE028DE896E00E94871868E93C
:1039E00071E08DE896E00E942C188091A6069091D7
:1039F000A706009761F00E94030C8091A6069091A3
:103A0000A7060E94F32F1092A7061092A6066B96A7
:103A10000FB6F894DEBF0FBECDBFDF91CF911F91DF
:103A20000F91FF90EF90DF90089588E08093B306A8
:103A300060E088EA96E00E94DF118091EE0261E08A
:103A4000823009F050C087E00E9470011092150387
:103A5000809102038823A1F080912601882381F0C0
:103A600080910103882361F00E94001C0E943802AB
:103A70006093FD027093FE028093FF029093000317
:103A80000E9438026093E5027093E6028093E70299
:103A90009093E8020E94380260930D0370930E0326
:103AA00080930F03909310030E94380260930903E0
:103AB00070930A0380930B0390930C030E943802C7
:103AC00060930503709306038093070390930803A4
:103AD0000E9438026093E9027093EA028093EB023D
:103AE0009093EC020895813011F486E0ADCF85E02B
:103AF000ABCF85ED8093BC008091710590917205EC
:103B0000A0917305B09174050796A11DB11D23E026
:103B1000B695A795979587952A95D1F72091BC00E2
:103B200024FD03C010926F050895409171055091D6
:103B300072056091730570917405452B462B472BD8
:103B400069F30097A105B10541F02AE22A95F1F742
:103B500000C00197A109B109E1CF809170050C94D3
:103B600023101F920F920FB60F9211242F933F93A1
:103B70008F939F93AF93BF938091170390911803F6
:103B8000A0911903B0911A033091160323E0230F7B
:103B90002D3758F50196A11DB11D20931603809372
:103BA000170390931803A0931903B0931A038091FD
:103BB0001B0390911C03A0911D03B0911E0301965D
:103BC000A11DB11D80931B0390931C03A0931D03A3
:103BD000B0931E03BF91AF919F918F913F912F9111
:103BE0000F900FBE0F901F90189526E8230F029696
:103BF000A11DB11DD2CF1F920F920FB60F921124AB
:103C00002F933F934F935F936F937F938F939F93E4
:103C1000AF93BF93EF93FF9389E995E00E94CF03A1
:103C2000FF91EF91BF91AF919F918F917F916F9194
:103C30005F914F913F912F910F900FBE0F901F906A
:103C400018951F920F920FB60F9211242F938F93F6
:103C50009F93EF93FF93E091A905F091AA058081CE
:103C6000E091AF05F091B00582FD1BC0908180917D
:103C7000B2058F5F8F732091B305821741F0E091F9
:103C8000B205F0E0E756FA4F958F8093B205FF91A9
:103C9000EF919F918F912F910F900FBE0F901F90DA
:103CA00018958081F4CF1F920F920FB60F921124B6
:103CB0002F933F934F935F936F937F938F939F9334
:103CC000AF93BF93EF93FF938091B900887F8036C5
:103CD00009F44AC0F0F5883209F4A7C018F580311C
:103CE00009F49BC0B8F4882309F4F9C0883009F4BA
:103CF00094C0FF91EF91BF91AF919F918F917F9170
:103D00006F915F914F913F912F910F900FBE0F9048
:103D10001F901895883109F488C0803251F780933C
:103D20006D0514C0803409F49DC040F48033B9F3AC
:103D30008833F9F680936D0585ECB0C0803509F4C1
:103D400085C0883509F496C0883499F60E94791D9B
:103D5000D0CF883909F48CC038F5883729F050F471
:103D6000883611F0803729F683E080936F05109232
:103D7000D60257C0883809F47BC0803919F08038E2
:103D800009F0B7CF8091D602803208F071C0E0917F
:103D9000D60281E08E0F8093D6028091BB00F0E0C6
:103DA000EA54FD4F80833DC0803B39F0E0F4803A17
:103DB00009F479C0883A09F09CCF84E080936F05BC
:103DC0001092B5021092B402E0912103F091220307
:103DD00009958091B40281110FC081E08093B402F3
:103DE0001092940209C0803C09F4A6CF883C09F4E3
:103DF000A3CF883B09F07DCFE091B50281E08E0F23
:103E00008093B502F0E0EC56FD4F80818093BB00BB
:103E10009091B5028091B40229C080914A058093A7
:103E2000BB0085EC8093BC0064CF90916C058091C1
:103E30006B05981758F5E0916C0581E08E0F809323
:103E40006C05F0E0E55BFA4F8081E9CFE0916C050D
:103E500081E08E0F80936C058091BB00F0E0E55B04
:103E6000FA4F808390916C0580916B059817C8F28A
:103E700085E8D8CFE0916C0581E08E0F80936C05CA
:103E80008091BB00F0E0E55BFA4F808380916E0586
:103E900081115CCF81E08093490584EA8093BC0066
:103EA00010926F0526CF85EC8093BC0010926F05B1
:103EB0008091D602803230F4E091D602F0E0EA54EC
:103EC000FD4F10826091D60270E0E0911F03F091E7
:103ED000200386EB92E009951092D6020ACF109249
:103EE0006D0534CF1F920F920FB60F9211242F93AE
:103EF0003F934F935F936F937F938F939F93AF9372
:103F0000BF93EF93FF93809192028F5F8093920211
:103F10008233A0F08091EE02811110C080911503D0
:103F200081110CC085E00E94470161E0892B09F0F6
:103F300060E085E00E94700110929202FF91EF9183
:103F4000BF91AF919F918F917F916F915F914F91B1
:103F50003F912F910F900FBE0F901F9018950F93C8
:103F60001F93E9E9F5E01382128248EE53E060E026
:103F700070E044835583668377838AE391E091837D
:103F8000808385EC90E09587848784EC90E0978728
:103F9000868780EC90E0918B808B81EC90E0938B16
:103FA000828B82EC90E0958B848B86EC90E0978BF3
:103FB000868B118E128E138E148EE6E3F6E080E56A
:103FC00080831182E8E3F6E015821682118613865B
:103FD00082E090E0A0E0B0E084879587A687B7876D
:103FE00013A215A614A68CE491E093A782A717A6A6
:103FF000E1E8F6E013821282448355836683778377
:1040000088E591E091838083A4EBB6E082E0159689
:104010008C9315979BE016969C931697E2EFF0E031
:10402000E4911796EC931797EEEDF0E0E491189673
:10403000EC93189700E81EE320E030E01D960D9306
:104040001D932D933C935097E8EAF6E01382128279
:104050002CE731E03183208397E2948390E19187CC
:1040600082871386EDE8F6E013821282448355833B
:10407000668377838AE691E091838083128E118E26
:1040800014861F910F910895CF93DF93CDB7DEB7BC
:10409000C456D1090FB6F894DEBF0FBECDBF7894D9
:1040A00084B5826084BD84B5816084BD85B582603D
:1040B00085BD85B5816085BD80916E0081608093EE
:1040C0006E00109281008091810082608093810057
:1040D0008091810081608093810080918000816067
:1040E000809380008091B10084608093B1008091C2
:1040F000B00081608093B00080917A0084608093EA
:104100007A0080917A00826080937A0080917A00B0
:10411000816080937A0080917A00806880937A0031
:104120001092C10061E085E00E949E0161E086E09E
:104130000E949E0161E087E00E949E0161E089E0AB
:104140000E949E0162E083E00E949E0161E08AE09D
:104150000E949E011092C50087E68093C40008E08B
:104160000093C10086E08093C20082E08093B0009B
:1041700097E09093B1009BE99093B3008093700017
:10418000789461E089E00E94700161E085E00E941E
:10419000700164E670E080E090E00E94060261E059
:1041A00086E00E94700164E670E080E090E00E948A
:1041B000060261E087E00E94700164E670E080E042
:1041C00090E00E94060260E085E00E94700160E0DD
:1041D00086E00E94700160E087E00E94700160E06C
:1041E00089E00E94700164E670E080E090E00E9447
:1041F000060261E089E00E9470010E940C1010929A
:10420000AD068091B206823010F00093AD06809327
:10421000B00662E370E080E090E00E9406026091E8
:10422000B30688EA96E00E94DF1168EE73E080E052
:1042300090E00E94060260E388EA96E00E94C517BB
:104240008BE4E82E86E4F82EC7010197F1F760E3CE
:1042500088EA96E00E94C517C7010197F1F760E36D
:1042600088EA96E00E94C51783E592E00197F1F78E
:1042700060E288EA96E00E94C5176091AD06606230
:1042800040E088EA96E00E94DE1784E08093AE0664
:1042900040E06CE088EA96E00E94DE1740E061E0D2
:1042A00088EA96E00E94DE179BE3E92E9FE1F92E53
:1042B000C7010197F1F782E08093AF0640E066E026
:1042C00088EA96E00E94DE1740E062E088EA96E025
:1042D0000E94DE17C7010197F1F788E08093B306CB
:1042E00060E088EA96E00E94DF1180E00E94F51706
:1042F00082EA91E00E94C41862E08091B9060E94AF
:104300009E010E943802605D7740810991096093A7
:10431000BD067093BE068093BF069093C00687E3E8
:104320008093C6060E940C10809123039091240371
:10433000009711F00E94F32F86E090E00E94572F23
:104340007C0188E6F701808381E896E0928381838F
:10435000138280E290E095838483F0922403E092BC
:1043600023030E940C1001E0F7010383C7010E94A0
:104370003411882309F400C1009301030E9435170A
:1043800090E0880F892F881F990B892B09F4F4C0BE
:104390004BE050E06EE970E0CE0101960E946E2C79
:1043A000CE010A960E945E04082FE981E154E331B0
:1043B00018F50E2E000CFF0BE052FE4D0C944A2F08
:1043C0004522FC21FC215922FC215B22FC21FC21FD
:1043D000FC21F321FC21FC214C2257225522FC21F7
:1043E000FC21FC2153228A8111E0813629F08B8146
:1043F00016E08E3609F017E0CE0105960E945E04A5
:10440000F82E48E050E065E970E0CE0101960E9488
:104410006E2CCE0101960E945E04E82ECE01049619
:104420000E945E04D82ECE0107960E945E04382FAB
:104430001A8219822AE0622F0E94162F982F880F65
:10444000890F880F830F8A838D2D0E94162F982F36
:10445000880F890F880F8D0D8B838E2D0E94162F4C
:10446000982F880F890F880F8E0D8C83602F70E036
:104470002F2D30E0E8E7F0E081E08117F0F494912F
:10448000290F311D8F5F3196F8CF8B8114E0823771
:1044900009F4B2CF18E0B0CF8B8113E0823709F472
:1044A000ABCF15E0A9CF19E0A7CF1AE0A5CF1BE04D
:1044B000A3CF1CE0A1CF12E09FCF133028F0802FB4
:1044C000837011F42F5F3F4FCB010396969587952C
:1044D00096958795EDE6F1E06E9FA0016F9F500DD8
:1044E0007E9F500D11244B5F5F4F840F951F820FED
:1044F000931F67E070E00E94222F811101C087E0C6
:104500008D832AE08F2D622F0E94162F982F880FFF
:10451000890F880F8F0D8E83812F0E94162F982F61
:10452000990F890F880F180F1F83802F0E94162F55
:10453000982F880F890F880F800F888721E048E027
:1045400050E0BE016F5F7F4F809123039091240361
:104550000E9405170E9435179FE09E8F8F778F8FDF
:1045600021E042E050E0BE01625E7F4F8091230374
:10457000909124030E94051780916706882321F0FB
:1045800082E696E00E94030C1092430610924106C8
:1045900010923E0610923D068AE080933C060E94EF
:1045A00038028B0161E080913C060E949E0161E02F
:1045B00080913C060E947001FFB6F8948091DE0263
:1045C000811127C0E6EEF0E08491EAEFF0E09491EB
:1045D000E82FF0E0EE0FFF1FE655FF4FA591B491D5
:1045E000EC91E92321F461E08AE00E94700161E02E
:1045F0008AE00E949E018CB580618CBD8CB5806480
:104600008CBD61E08DE00E949E0161E08BE00E9424
:104610009E018091DE028F5F8093DE02FFBE82E505
:1046200080933606109237068091360690913706B1
:104630000E94A104FAE0FF2E8FEF0E947C04FA94FE
:10464000F110FACF88E396E00E94A40420E030E065
:10465000A90160E088E396E00E94BA04F82E8093F6
:104660004206F1E08F1709F481C20E943802601BF4
:10467000710B613D774050F381E080933D0688E304
:1046800096E00E9471041092020381E00E94F517E7
:1046900080EB91E00E94C41868EE73E080E090E047
:1046A0000E9406020E9438026093E5027093E602BF
:1046B0008093E7029093E80233E0432E512CC12C03
:1046C00042E0D42E5BE3652E5FE1752E96E0292E45
:1046D00022E0322E80911503882309F4C1C30E9481
:1046E00038020091110310911203209113033091AD
:1046F0001403601B710B820B930B613D77408105A6
:10470000910508F478C30E9468148090F902909093
:10471000FA02A090FB02B090FC02A5019401C50131
:10472000B4010E94112F10E000E0811122C02091FD
:104730002001309121014091220150912301C501B6
:10474000B4010E940C2F02E010E0181694F0EE2441
:10475000E394F12C2091F5023091F6024091F7029A
:104760005091F802C501B4010E94772C87FFE12C1B
:1047700087018090F1029090F202A090F302B09035
:10478000F402A5019401C501B4010E94112F811109
:1047900021C020911C0130911D0140911E015091BA
:1047A0001F01C501B4010E940C2F181674F020914E
:1047B00018013091190140911A0150911B01C50156
:1047C000B4010E94772C87FF05C01016110614F063
:1047D00001E010E08091EF029091F002209116012B
:1047E00030911701281739073CF0209114013091BE
:1047F0001501821793072CF41016110614F001E02E
:1048000010E08091EE028017110609F4EAC201154A
:10481000110509F4E6C20093EE020E94151D809175
:104820001301882371F060E089E00E94700164E662
:1048300070E080E090E00E94060261E089E00E9462
:1048400070018091150381110C94112C0E94380283
:10485000009111031091120320911303309114035E
:10486000601B710B820B930B613D774081059105B5
:1048700008F4E8C00E94681460E085E00E947001BE
:1048800060E086E00E94700160E087E00E947001B5
:104890008090F9029090FA02A090FB02B090FC0286
:1048A000A5019401C501B4010E94112F10E000E0A0
:1048B000811122C0209120013091210140912201DB
:1048C00050912301C501B4010E940C2F02E010E0B9
:1048D000181694F0EE24E394F12C2091F502309117
:1048E000F6024091F7025091F802C501B4010E940E
:1048F000772C87FFE12C87018090F1029090F202E3
:10490000A090F302B090F402A5019401C501B40196
:104910000E94112F811121C020911C0130911D0195
:1049200040911E0150911F01C501B4010E940C2F3E
:10493000181674F0209118013091190140911A0154
:1049400050911B01C501B4010E94772C87FF05C05F
:104950001016110614F001E010E08091EF02909122
:10496000F0022091160130911701281739073CF009
:104970002091140130911501821793072CF4101621
:10498000110614F001E010E061E087E0023011054B
:1049900029F086E00130110509F085E00E947001E0
:1049A0008091EE028017110609F442C00093EE02D6
:1049B00088E40230110529F08CE40130110509F07A
:1049C0008EE40E94D9158DE00E94D9158AE00E94DC
:1049D000D9151016110694F480911301882371F0F3
:1049E00060E089E00E94700164E670E080E090E0A1
:1049F0000E94060261E089E00E94700181E08093DC
:104A0000ED020E9438026093E9027093EA028093FB
:104A1000EB029093EC021016110654F40E94380237
:104A20006093E5027093E6028093E7029093E802B8
:104A30000E94380260931103709312038093130352
:104A4000909314030E94380200910D0310910E03FD
:104A500020910F0330911003601B710B820B930B9D
:104A6000653F71408105910508F47BC440E061E039
:104A700088EA96E00E94DE17C3010197F1F7809162
:104A80000303823008F086C2813009F453C280E00B
:104A90000E94F5178FE192E00E94C4184091F9023C
:104AA0005091FA026091FB027091FC0221E030E02B
:104AB00088EA96E00E94C9188AEB91E00E94C41827
:104AC0008CEB91E00E94C4188090F9029090FA0259
:104AD000A090FB02B090FC022091F5023091F6020A
:104AE0004091F7025091F802C501B4010E94772C61
:104AF00087FFFBC18EEB91E00E94C41881E00E9409
:104B0000F51783E392E00E94C4184091F10250919E
:104B1000F2026091F3027091F40221E030E088EA41
:104B200096E00E94C9188AEC91E00E94C4188CEBB0
:104B300091E00E94C4188090F1029090F202A0903F
:104B4000F302B090F40220911801309119014091C4
:104B50001A0150911B01C501B4010E94772C87FFF7
:104B6000D8C18EEB91E00E94C418F1C32AEA31E06B
:104B700040E050E068E088E396E00E94BA0482FFDB
:104B80002AC0F092430680914306C12CD12CE12C1F
:104B900070E4F72E823019F0C12CD12C760120E080
:104BA00030E0A90167E388E396E00E94BA04A70118
:104BB000960169E288E396E00E94BA048093420677
:104BC0008823D1F00E943802601B710B613D774051
:104BD00030F388E052CDE4E0FE2E0E9483048093FF
:104BE0004206FA94F110F9CF8A3A11F082E045CDED
:104BF00082E080934306C7CF809143068230D1F490
:104C000020E030E0A9016AE388E396E00E94BA045C
:104C1000882311F086E031CD0E948304807C803CA3
:104C200019F483E0809343060E9483040E94830466
:104C30000E94830488E396E00E94710480E58093DB
:104C400036061092370681E00E94C006882309F4D8
:104C500071C082E696E00E947709882309F413CD9B
:104C600081E0809302031EAE1DAE8CE491E09CAF08
:104C70008BAF21961FAE219719A218A29F8F8E8FFE
:104C80001BA2912C812C7E019BE3E90EF11C02E614
:104C900016E06CE4A62E61E0B62E892D982DFC015D
:104CA000E057FE4F20812F3209F40196DC01A05716
:104CB000BE4FFE01E85AFF4F30E020E06F014D91FA
:104CC0004F3249F0442339F001962F5F3F4F419313
:104CD0002C303105A1F72C0D3D1DF9011082FC018E
:104CE000E057FE4F20812F3209F40196982E892E2D
:104CF00080579E4FFC0170801C821B82BA82A98261
:104D00001E8221E0A601B801CE0101960E94A819D9
:104D1000882309F4C8C5CE0101960E94030C7110C6
:104D200010C026E00236120709F4AFCCC8010E9479
:104D3000030CABCC80E00E94C006882309F4A3CC0E
:104D400088CFF70185818111C3C521E0A601B80193
:104D5000C7010E94A819D82EF6E002361F0709F4F1
:104D6000ABC5C8010E94030CD110ACC5CE010196A1
:104D70000E94891BCE0101960E94AD00E091A6061B
:104D8000F091A706309709F480CC8581882309F437
:104D90007CCC03E810E0F8016491662341F08DE8D3
:104DA00096E00E94620E0F5F1F4F892BA1F768E902
:104DB00071E08DE896E00E942C188091A6069091F3
:104DC000A706009709F461CC0E94030C8091A60607
:104DD0009091A7060E94F32F1092A7061092A606A4
:104DE00054CC0E9438026093110370931203809395
:104DF0001303909314038FE00E94CF017C0180E1A4
:104E00000E94CF018C0183E00E94470121E0E2165D
:104E100022E0F20644F0E9ECEE16E2E0FE064CF089
:104E20000E94151D0ECD96012E193F09293C310512
:104E3000BCF70130F2E01F0764F0093C124084F730
:104E4000892B71F364E670E080E090E00E94060236
:104E5000F8CC9601201B310B293C31058CF3E0CFB7
:104E600080911201882309F4F1CC8091EE02811126
:104E7000EDCC0E9438020091E5021091E6022091EB
:104E8000E7023091E8024B015C01801A910AA20A04
:104E9000B30A850174012091110130E0A8EEB3E05E
:104EA0000E94EF2D6E157F058007910708F0CECC8C
:104EB00060E085E00E94700160E086E00E94700181
:104EC00060E087E00E94700161E089E00E9470016B
:104ED0001092B30660E088EA96E00E94DF1181E05C
:104EE000809315030E943802ACCC209120013091B0
:104EF00021014091220150912301C501B4010E947A
:104F00000C2F18161CF482EC91E0F6CD86EC91E0A3
:104F1000F3CD20911C0130911D0140911E01509153
:104F20001F01C501B4010E940C2F181684F582ECF4
:104F300091E019CE80E00E94F5178BE392E00E9489
:104F4000C41881E00E94F5176091EF027091F002A1
:104F500088EA96E00E948E188AEC91E00E94C418BC
:104F60008CEB91E00E94C4188091EF029091F002C6
:104F70002091140130911501821793070CF4F1CDA3
:104F800020911601309117012817390784F286EC19
:104F900091E0E9CD823009F0DAC1E091E40280913C
:104FA0000403811115C1E73008F0D1C1F0E0E452EB
:104FB000F84D80E00C944A2FE327FE272E285E2828
:104FC0007C289F28BE280E94F5178EE092E00E9460
:104FD000C41880911301882371F08BE991E00E943D
:104FE000C41881E00E94F51785E192E00E94C41880
:104FF0008091270110C18EE991E0F1CF0E94F51751
:105000008CEC91E00E94C418409120015091210144
:10501000609122017091230121E030E088EA96E05E
:105020000E94C9188AEB91E00E94C41881E00E9496
:10503000F51783ED91E00E94C4184091F50250915C
:10504000F6026091F7027091F80221E030E088EA00
:1050500096E00E94C9188AEB91E085CD0E94F51771
:105060008AED91E00E94C41840911C0150911D01ED
:1050700060911E0170911F0130E020E088EA96E007
:105080000E94C9188AEC91E00E94C41881E00E9435
:10509000F51781EE91E00E94C418409118015091DB
:1050A000190160911A0170911B0130E020E088EA3B
:1050B00096E00E94C9188AEC91E055CD0E94F51740
:1050C00088EE91E00E94C41860911601709117015A
:1050D00088EA96E00E948E188AEC91E00E94C4183B
:1050E00081E00E94F5178FEE91E00E94C418609154
:1050F00014017091150103C10E94F51783E492E039
:105100000E94C418809126018823B1F08BE991E0B8
:105110000E94C41881E00E94F51786EF91E00E947A
:10512000C418609124017091250188EA96E00E94DC
:105130008E188BEF91E017CD8EE991E0E9CF0E94B8
:10514000F5178CE592E00E94C41880911201882323
:1051500091F08BE991E00E94C41881E00E94F5175C
:105160008DEF91E00E94C4186091110188EA96E0E9
:105170000E948718DECF8EE991E0EDCF0E94F517EF
:105180008DE792E00E94C41840910D0150910E01EC
:1051900060910F017091100121E030E088EA96E003
:1051A0000E94C9188AEB91E00E94C41881E00E9415
:1051B000F51788E892E00E94C418409109015091C7
:1051C0000A0160910B0170910C0121E030E06FCF7A
:1051D000E73008F0BCC0F0E0EF50F74D80E00C94F1
:1051E0004A2FF82814293D296A2987296A2A8C2AF6
:1051F0000E94F51783E092E00E94C41881E00E94AB
:10520000F5178091E30281110CC08DE092E00E94BD
:10521000C41880911301882309F470C18BE991E0CF
:10522000A2CC84E192E0E2CE0E94F5178AE192E0FE
:105230000E94C41881E00E94F5178091E302811159
:105240000FC082E292E00E94C41840912001509168
:105250002101609122017091230121E030E028C0FA
:1052600088E292E00E94C4184091F5025091F60243
:105270006091F7027091F802F0CF0E94F5178EE26C
:1052800092E00E94C41881E00E94F5178091E30229
:10529000811113C082E292E00E94C41840911C0167
:1052A00050911D0160911E0170911F0130E020E0BE
:1052B00088EA96E00E94C9184AC088E292E00E94FB
:1052C000C418409118015091190160911A01709110
:1052D0001B01ECCF0E94F51786E392E00E94C418F0
:1052E00081E00E94F5178091E30281110DC082E2F6
:1052F00092E00E94C418609116017091170188EA2B
:1053000096E00E948E18D7CE88E292E0EECE0E9400
:10531000F5178EE392E00E94C41881E00E94F51711
:105320008091E302811107C088E492E00E94C418D2
:105330008091260170CF80E592E00E94C4186091B0
:1053400024017091250188EA96E00E948E180E943F
:10535000380260930D0370930E0380930F039093B4
:1053600010030E9438020091090310910A03209152
:105370000B0330910C03601B710B820B930B693C88
:10538000710581059105C0F18FE00E94CF017C017C
:1053900080E10E94CF018C0183E00E9447015C0103
:1053A0000E9438022091DF023091E0024091E10238
:1053B0005091E202621B730B840B950B6C327140AF
:1053C0008105910508F0CFC0F0920801E092070135
:1053D000109306010093050181E0AB2809F480E0F9
:1053E000809304010E9438026093090370930A03BA
:1053F00080930B0390930C0380912701882351F134
:105400000E943802009105031091060320910703C2
:1054100030910803601B710B820B930B693B7B403F
:1054200081059105B8F080910403811113C080912A
:10543000030390E00196B2010E94362F809303038C
:105440000E9438026093050370930603809307035C
:105450009093080380910203882399F1809126019B
:10546000882379F180910103882359F10E94380241
:105470000091FD021091FE022091FF023091000385
:105480004B015C01801A910AA20AB30A85017401DA
:10549000A0912401B091250128EE33E00E94502F05
:1054A0006E157F058007910760F40E94001C0E9422
:1054B00038026093FD027093FE028093FF02909386
:1054C00000038091130181117FC161E089E00E9496
:1054D0007001A7C10E94F51787E592E00E94C418E9
:1054E00081E00E94F5178091E30281110AC081E6F4
:1054F00092E00E94C418809112018DCE8EE991E055
:1055000032CB88E692E00E94C4186091110188EACB
:1055100096E00E9487181BCF0E94F51784E792E05F
:105520000E94C41881E00E94F5178091E302811166
:105530000DC08CE792E00E94C41840910D0150917B
:105540000E0160910F017091100187CE87E892E003
:105550000E94C4184091090150910A0160910B0109
:1055600070910C017ACE21E0E21622E0F2060CF4F2
:105570005DC089ECE81682E0F8060CF05EC00130F0
:1055800092E019070CF464C0093CE2E01E070CF03D
:1055900054C0809104018A151B0409F04EC0A11467
:1055A000B10451F580910401882331F18091030306
:1055B000823009F057C080910403811150C081E00E
:1055C000809304031092E30260E089E00E9470017E
:1055D00064E670E080E090E00E94060261E089E00D
:1055E0000E9470010E9438026093DF027093E00213
:1055F0008093E1029093E202FCE2EF16F1E0FF06F5
:105600000CF07CC080910701909108018C32914090
:105610000CF457C08091030390910403911187C04B
:10562000882339F181508093030325C0C6018E1968
:105630009F09893C91050CF4A2CF0E943802609327
:10564000E5027093E6028093E7029093E802A7CF09
:10565000C601801B910B893C91057CF79ACF109273
:105660000403B2CF8091270191E08927809327011D
:10567000ABCF30920303109227010E94380260934F
:105680000503709306038093070390930803109219
:10569000E40260E089E00E94700162E370E080E073
:1056A00090E00E94060261E089E00E9470010E9481
:1056B00038026093DF027093E0028093E1029093DE
:1056C000E2020C32F1E01F070CF05DC08091050191
:1056D000909106018C3291400CF476CE80910303B8
:1056E000823099F580910403811148C08091E402D1
:1056F000882349F181508093E40227C08DEBE8169E
:1057000082E0F806F4F280910701909108018D3B48
:105710009240BCF68091030390910403911107C05D
:10572000823010F48F5F7FCF10920303A4CF8230BA
:1057300009F0AFCF81E09091E302913009F480E06D
:105740008093E302A6CF2092E40260E089E00E9409
:10575000700162E370E080E090E00E94060261E088
:1057600089E00E9470010E9438026093DF0270930A
:10577000E0028093E1029093E20226CE81E090E085
:105780000E94F611E2CF0D3B82E018070CF41CCE0C
:1057900080910501909106018D3B92400CF014CE52
:1057A00080910303823089F680910403811109C03E
:1057B0008091E402863010F48F5F9DCF1092E40256
:1057C000C4CF8FEF9FEFDCCF1091EE021130D9F1F3
:1057D000123009F07ACE0E9438020091E90210914D
:1057E000EA022091EB023091EC02601B710B820BFC
:1057F000930B693C71058105910598F06091ED026C
:1058000081E086278093ED0289E00E9470010E946A
:1058100038026093E9027093EA028093EB0290935E
:10582000EC0280E0882E80E0982E892811F40C94F8
:105830006A230E94BB03882311F40C9466230E9400
:1058400000000C9466238090E9029090EA02A090F8
:10585000EB02B090EC028091ED02882391F00E945F
:105860003802681979098A099B09653F71408105E9
:105870009105B8F261E089E00E9470011092ED029A
:10588000C6CF0E943802681979098A099B09613DCF
:1058900077408105910528F260E089E00E9470015F
:1058A0001093ED02B4CF26E00236120709F45ECA67
:1058B000C8010E94030C5ACA882309F457CA8E01F2
:1058C000025E1F4F902F812F8701E92EF82EE5C928
:1058D00086E00236180709F449CAEACFFB01DC0169
:1058E00002C005900D9241505040D8F708950E9493
:1058F000B92C08F481E00895E89409C097FB3EF4C0
:1059000090958095709561957F4F8F4F9F4F99230C
:10591000A9F0F92F96E9BB279395F695879577958A
:105920006795B795F111F8CFFAF4BB0F11F460FF4A
:105930001BC06F5F7F4F8F4F9F4F16C0882311F0A2
:1059400096E911C0772321F09EE8872F762F05C0B6
:10595000662371F096E8862F70E060E02AF09A9551
:10596000660F771F881FDAF7880F9695879597F946
:105970000895990F0008550FAA0BE0E8FEEF1616E0
:105980001706E807F907C0F012161306E407F50733
:1059900098F0621B730B840B950B39F40A2661F0A7
:1059A000232B242B252B21F408950A2609F4A1404A
:1059B000A6958FEF811D811D08950E94F02C0C94F7
:1059C000612D0E94532D38F00E945A2D20F095230E
:1059D00011F00C944A2D0C94502D11240C94952DFB
:1059E0000E94722D70F3959FC1F3950F50E0551FE3
:1059F000629FF001729FBB27F00DB11D639FAA2724
:105A0000F00DB11DAA1F649F6627B00DA11D661F72
:105A1000829F2227B00DA11D621F739FB00DA11D93
:105A2000621F839FA00D611D221F749F3327A00D4D
:105A3000611D231F849F600D211D822F762F6A2FE9
:105A400011249F5750409AF0F1F088234AF0EE0F4E
:105A5000FF1FBB1F661F771F881F91505040A9F77B
:105A60009E3F510580F00C944A2D0C94952D5F3F7C
:105A7000E4F3983ED4F3869577956795B795F795B7
:105A8000E7959F5FC1F7FE2B880F911D969587952F
:105A900097F9089597F99F6780E870E060E00895AE
:105AA0009FEF80EC089500240A9416161706180636
:105AB0000906089500240A94121613061406050612
:105AC0000895092E0394000C11F4882352F0BB0FA3
:105AD00040F4BF2B11F460FF04C06F5F7F4F8F4F06
